{"abi":[{"type":"function","name":"verifyL2MessageMembership","inputs":[{"name":"outbox","type":"address","internalType":"contract IOutbox"},{"name":"l2BlockNumber","type":"uint256","internalType":"uint256"},{"name":"messageHash","type":"bytes32","internalType":"bytes32"},{"name":"messageIndex","type":"uint256","internalType":"uint256"},{"name":"siblingPath","type":"bytes32[]","internalType":"bytes32[]"}],"outputs":[],"stateMutability":"view"},{"type":"error","name":"MerkleLib__InvalidRoot","inputs":[{"name":"expected","type":"bytes32","internalType":"bytes32"},{"name":"actual","type":"bytes32","internalType":"bytes32"},{"name":"leaf","type":"bytes32","internalType":"bytes32"},{"name":"leafIndex","type":"uint256","internalType":"uint256"}]}],"bytecode":{"object":"0x6080604052348015600e575f5ffd5b506103f18061001c5f395ff3fe608060405234801561000f575f5ffd5b5060043610610029575f3560e01c8063e35a8f031461002d575b5f5ffd5b61004061003b366004610257565b610042565b005b604051632249f65360e01b8152600481018690525f906001600160a01b03881690632249f653906024016040805180830381865afa158015610086573d5f5f3e3d5ffd5b505050506040513d601f19601f820116820180604052508101906100aa9190610301565b5090506100ba83838787856100c3565b50505050505050565b82825f5b86811015610170576001808316148061012a57610125848a8a858181106100f0576100f0610323565b90506020020135604051602001610111929190918252602082015260400190565b6040516020818303038152906040526101bc565b610161565b61016189898481811061013f5761013f610323565b9050602002013585604051602001610111929190918252602082015260400190565b935050600191821c91016100c7565b50828286868284146101af57604051635f216bf160e01b8152600481019490945260248401929092526044830152606482015260840160405180910390fd5b5050505050505050505050565b6040805160018082528183019092525f91602082018180368337019050506002836040516101ea919061034e565b602060405180830381855afa158015610205573d5f5f3e3d5ffd5b5050506040513d601f19601f820116820180604052508101906102289190610360565b604051602001610239929190610377565b60405160208183030381529060405261025190610395565b92915050565b5f5f5f5f5f5f60a0878903121561026c575f5ffd5b86356001600160a01b0381168114610282575f5ffd5b9550602087013594506040870135935060608701359250608087013567ffffffffffffffff8111156102b2575f5ffd5b8701601f810189136102c2575f5ffd5b803567ffffffffffffffff8111156102d8575f5ffd5b8960208260051b84010111156102ec575f5ffd5b60208201935080925050509295509295509295565b5f5f60408385031215610312575f5ffd5b505080516020909101519092909150565b634e487b7160e01b5f52603260045260245ffd5b5f81518060208401855e5f93019283525090919050565b5f6103598284610337565b9392505050565b5f60208284031215610370575f5ffd5b5051919050565b5f6103828285610337565b60ff199390931683525050601f01919050565b805160208083015191908110156103b5575f198160200360031b1b821691505b5091905056fea26469706673582212200d042a9211a86db4fb1a74da085c81452a645c0c3eddaa22a778b8dd6f7c5efd64736f6c634300081c0033","linkReferences":{}},"methodIdentifiers":{"verifyL2MessageMembership(address,uint256,bytes32,uint256,bytes32[])":"e35a8f03"},"id":0}